{
    "contractName": "SimpleToken",
    "abi": [
        {
            "inputs": [
                {
                    "internalType": "string",
                    "name": "_name",
                    "type": "string"
                },
                {
                    "internalType": "string",
                    "name": "_symbol",
                    "type": "string"
                },
                {
                    "internalType": "uint256",
                    "name": "_count",
                    "type": "uint256"
                }
            ],
            "stateMutability": "nonpayable",
            "type": "constructor"
        },
        {
            "anonymous": false,
            "inputs": [
                {
                    "indexed": true,
                    "internalType": "address",
                    "name": "owner",
                    "type": "address"
                },
                {
                    "indexed": true,
                    "internalType": "address",
                    "name": "spender",
                    "type": "address"
                },
                {
                    "indexed": false,
                    "internalType": "uint256",
                    "name": "value",
                    "type": "uint256"
                }
            ],
            "name": "Approval",
            "type": "event"
        },
        {
            "anonymous": false,
            "inputs": [
                {
                    "indexed": true,
                    "internalType": "address",
                    "name": "from",
                    "type": "address"
                },
                {
                    "indexed": true,
                    "internalType": "address",
                    "name": "to",
                    "type": "address"
                },
                {
                    "indexed": false,
                    "internalType": "uint256",
                    "name": "value",
                    "type": "uint256"
                }
            ],
            "name": "Transfer",
            "type": "event"
        },
        {
            "inputs": [
                {
                    "internalType": "address",
                    "name": "owner",
                    "type": "address"
                },
                {
                    "internalType": "address",
                    "name": "spender",
                    "type": "address"
                }
            ],
            "name": "allowance",
            "outputs": [
                {
                    "internalType": "uint256",
                    "name": "",
                    "type": "uint256"
                }
            ],
            "stateMutability": "view",
            "type": "function",
            "constant": true
        },
        {
            "inputs": [
                {
                    "internalType": "address",
                    "name": "spender",
                    "type": "address"
                },
                {
                    "internalType": "uint256",
                    "name": "amount",
                    "type": "uint256"
                }
            ],
            "name": "approve",
            "outputs": [
                {
                    "internalType": "bool",
                    "name": "",
                    "type": "bool"
                }
            ],
            "stateMutability": "nonpayable",
            "type": "function"
        },
        {
            "inputs": [
                {
                    "internalType": "address",
                    "name": "account",
                    "type": "address"
                }
            ],
            "name": "balanceOf",
            "outputs": [
                {
                    "internalType": "uint256",
                    "name": "",
                    "type": "uint256"
                }
            ],
            "stateMutability": "view",
            "type": "function",
            "constant": true
        },
        {
            "inputs": [],
            "name": "count",
            "outputs": [
                {
                    "internalType": "uint256",
                    "name": "",
                    "type": "uint256"
                }
            ],
            "stateMutability": "view",
            "type": "function",
            "constant": true
        },
        {
            "inputs": [],
            "name": "decimals",
            "outputs": [
                {
                    "internalType": "uint8",
                    "name": "",
                    "type": "uint8"
                }
            ],
            "stateMutability": "view",
            "type": "function",
            "constant": true
        },
        {
            "inputs": [
                {
                    "internalType": "address",
                    "name": "spender",
                    "type": "address"
                },
                {
                    "internalType": "uint256",
                    "name": "subtractedValue",
                    "type": "uint256"
                }
            ],
            "name": "decreaseAllowance",
            "outputs": [
                {
                    "internalType": "bool",
                    "name": "",
                    "type": "bool"
                }
            ],
            "stateMutability": "nonpayable",
            "type": "function"
        },
        {
            "inputs": [
                {
                    "internalType": "address",
                    "name": "spender",
                    "type": "address"
                },
                {
                    "internalType": "uint256",
                    "name": "addedValue",
                    "type": "uint256"
                }
            ],
            "name": "increaseAllowance",
            "outputs": [
                {
                    "internalType": "bool",
                    "name": "",
                    "type": "bool"
                }
            ],
            "stateMutability": "nonpayable",
            "type": "function"
        },
        {
            "inputs": [],
            "name": "name",
            "outputs": [
                {
                    "internalType": "string",
                    "name": "",
                    "type": "string"
                }
            ],
            "stateMutability": "view",
            "type": "function",
            "constant": true
        },
        {
            "inputs": [],
            "name": "symbol",
            "outputs": [
                {
                    "internalType": "string",
                    "name": "",
                    "type": "string"
                }
            ],
            "stateMutability": "view",
            "type": "function",
            "constant": true
        },
        {
            "inputs": [],
            "name": "totalSupply",
            "outputs": [
                {
                    "internalType": "uint256",
                    "name": "",
                    "type": "uint256"
                }
            ],
            "stateMutability": "view",
            "type": "function",
            "constant": true
        },
        {
            "inputs": [
                {
                    "internalType": "address",
                    "name": "recipient",
                    "type": "address"
                },
                {
                    "internalType": "uint256",
                    "name": "amount",
                    "type": "uint256"
                }
            ],
            "name": "transfer",
            "outputs": [
                {
                    "internalType": "bool",
                    "name": "",
                    "type": "bool"
                }
            ],
            "stateMutability": "nonpayable",
            "type": "function"
        },
        {
            "inputs": [
                {
                    "internalType": "address",
                    "name": "sender",
                    "type": "address"
                },
                {
                    "internalType": "address",
                    "name": "recipient",
                    "type": "address"
                },
                {
                    "internalType": "uint256",
                    "name": "amount",
                    "type": "uint256"
                }
            ],
            "name": "transferFrom",
            "outputs": [
                {
                    "internalType": "bool",
                    "name": "",
                    "type": "bool"
                }
            ],
            "stateMutability": "nonpayable",
            "type": "function"
        }
    ],
    "bytecode": "0x60806040523480156200001157600080fd5b5060405162001c3238038062001c32833981810160405281019062000037919062000361565b828281600390805190602001906200005192919062000228565b5080600490805190602001906200006a92919062000228565b505050620000ac3362000082620000b560201b60201c565b60ff16600a620000939190620005ab565b83620000a09190620006e8565b620000be60201b60201c565b50505062000873565b60006012905090565b600073ffffffffffffffffffffffffffffffffffffffff168273ffffffffffffffffffffffffffffffffffffffff16141562000131576040517f08c379a000000000000000000000000000000000000000000000000000000000815260040162000128906200043c565b60405180910390fd5b62000145600083836200022360201b60201c565b8060026000828254620001599190620004f3565b92505081905550806000808473ffffffffffffffffffffffffffffffffffffffff1673ffffffffffffffffffffffffffffffffffffffff1681526020019081526020016000206000828254620001b09190620004f3565b925050819055508173ffffffffffffffffffffffffffffffffffffffff16600073ffffffffffffffffffffffffffffffffffffffff167fddf252ad1be2c89b69c2b068fc378daa952ba7f163c4a11628f55a4df523b3ef836040516200021791906200045e565b60405180910390a35050565b505050565b828054620002369062000789565b90600052602060002090601f0160209004810192826200025a5760008555620002a6565b82601f106200027557805160ff1916838001178555620002a6565b82800160010185558215620002a6579182015b82811115620002a557825182559160200191906001019062000288565b5b509050620002b59190620002b9565b5090565b5b80821115620002d4576000816000905550600101620002ba565b5090565b6000620002ef620002e984620004af565b6200047b565b9050828152602081018484840111156200030857600080fd5b6200031584828562000753565b509392505050565b600082601f8301126200032f57600080fd5b815162000341848260208601620002d8565b91505092915050565b6000815190506200035b8162000859565b92915050565b6000806000606084860312156200037757600080fd5b600084015167ffffffffffffffff8111156200039257600080fd5b620003a0868287016200031d565b935050602084015167ffffffffffffffff811115620003be57600080fd5b620003cc868287016200031d565b9250506040620003df868287016200034a565b9150509250925092565b6000620003f8601f83620004e2565b91507f45524332303a206d696e7420746f20746865207a65726f2061646472657373006000830152602082019050919050565b620004368162000749565b82525050565b600060208201905081810360008301526200045781620003e9565b9050919050565b60006020820190506200047560008301846200042b565b92915050565b6000604051905081810181811067ffffffffffffffff82111715620004a557620004a46200081d565b5b8060405250919050565b600067ffffffffffffffff821115620004cd57620004cc6200081d565b5b601f19601f8301169050602081019050919050565b600082825260208201905092915050565b6000620005008262000749565b91506200050d8362000749565b9250827fffffffffffffffffffffffffffffffffffffffffffffffffffffffffffffffff03821115620005455762000544620007bf565b5b828201905092915050565b6000808291508390505b6001851115620005a2578086048111156200057a5762000579620007bf565b5b60018516156200058a5780820291505b80810290506200059a856200084c565b94506200055a565b94509492505050565b6000620005b88262000749565b9150620005c58362000749565b9250620005f47fffffffffffffffffffffffffffffffffffffffffffffffffffffffffffffffff8484620005fc565b905092915050565b6000826200060e5760019050620006e1565b816200061e5760009050620006e1565b8160018114620006375760028114620006425762000678565b6001915050620006e1565b60ff841115620006575762000656620007bf565b5b8360020a915084821115620006715762000670620007bf565b5b50620006e1565b5060208310610133831016604e8410600b8410161715620006b25782820a905083811115620006ac57620006ab620007bf565b5b620006e1565b620006c1848484600162000550565b92509050818404811115620006db57620006da620007bf565b5b81810290505b9392505050565b6000620006f58262000749565b9150620007028362000749565b9250817fffffffffffffffffffffffffffffffffffffffffffffffffffffffffffffffff04831182151516156200073e576200073d620007bf565b5b828202905092915050565b6000819050919050565b60005b838110156200077357808201518184015260208101905062000756565b8381111562000783576000848401525b50505050565b60006002820490506001821680620007a257607f821691505b60208210811415620007b957620007b8620007ee565b5b50919050565b7f4e487b7100000000000000000000000000000000000000000000000000000000600052601160045260246000fd5b7f4e487b7100000000000000000000000000000000000000000000000000000000600052602260045260246000fd5b7f4e487b7100000000000000000000000000000000000000000000000000000000600052604160045260246000fd5b60008160011c9050919050565b620008648162000749565b81146200087057600080fd5b50565b6113af80620008836000396000f3fe608060405234801561001057600080fd5b50600436106100b45760003560e01c80633950935111610071578063395093511461019157806370a08231146101c157806395d89b41146101f1578063a457c2d71461020f578063a9059cbb1461023f578063dd62ed3e1461026f576100b4565b806306661abd146100b957806306fdde03146100d7578063095ea7b3146100f557806318160ddd1461012557806323b872dd14610143578063313ce56714610173575b600080fd5b6100c161029f565b6040516100ce9190611146565b60405180910390f35b6100df6102a5565b6040516100ec9190611044565b60405180910390f35b61010f600480360381019061010a9190610cbd565b610337565b60405161011c9190611029565b60405180910390f35b61012d610355565b60405161013a9190611146565b60405180910390f35b61015d60048036038101906101589190610c6e565b61035f565b60405161016a9190611029565b60405180910390f35b61017b610460565b6040516101889190611161565b60405180910390f35b6101ab60048036038101906101a69190610cbd565b610469565b6040516101b89190611029565b60405180910390f35b6101db60048036038101906101d69190610c09565b610515565b6040516101e89190611146565b60405180910390f35b6101f961055d565b6040516102069190611044565b60405180910390f35b61022960048036038101906102249190610cbd565b6105ef565b6040516102369190611029565b60405180910390f35b61025960048036038101906102549190610cbd565b6106e3565b6040516102669190611029565b60405180910390f35b61028960048036038101906102849190610c32565b610701565b6040516102969190611146565b60405180910390f35b60055481565b6060600380546102b4906112aa565b80601f01602080910402602001604051908101604052809291908181526020018280546102e0906112aa565b801561032d5780601f106103025761010080835404028352916020019161032d565b820191906000526020600020905b81548152906001019060200180831161031057829003601f168201915b5050505050905090565b600061034b610344610788565b8484610790565b6001905092915050565b6000600254905090565b600061036c84848461095b565b6000600160008673ffffffffffffffffffffffffffffffffffffffff1673ffffffffffffffffffffffffffffffffffffffff16815260200190815260200160002060006103b7610788565b73ffffffffffffffffffffffffffffffffffffffff1673ffffffffffffffffffffffffffffffffffffffff16815260200190815260200160002054905082811015610437576040517f08c379a000000000000000000000000000000000000000000000000000000000815260040161042e906110c6565b60405180910390fd5b61045485610443610788565b858461044f91906111ee565b610790565b60019150509392505050565b60006012905090565b600061050b610476610788565b848460016000610484610788565b73ffffffffffffffffffffffffffffffffffffffff1673ffffffffffffffffffffffffffffffffffffffff16815260200190815260200160002060008873ffffffffffffffffffffffffffffffffffffffff1673ffffffffffffffffffffffffffffffffffffffff168152602001908152602001600020546105069190611198565b610790565b6001905092915050565b60008060008373ffffffffffffffffffffffffffffffffffffffff1673ffffffffffffffffffffffffffffffffffffffff168152602001908152602001600020549050919050565b60606004805461056c906112aa565b80601f0160208091040260200160405190810160405280929190818152602001828054610598906112aa565b80156105e55780601f106105ba576101008083540402835291602001916105e5565b820191906000526020600020905b8154815290600101906020018083116105c857829003601f168201915b5050505050905090565b600080600160006105fe610788565b73ffffffffffffffffffffffffffffffffffffffff1673ffffffffffffffffffffffffffffffffffffffff16815260200190815260200160002060008573ffffffffffffffffffffffffffffffffffffffff1673ffffffffffffffffffffffffffffffffffffffff168152602001908152602001600020549050828110156106bb576040517f08c379a00000000000000000000000000000000000000000000000000000000081526004016106b290611126565b60405180910390fd5b6106d86106c6610788565b8585846106d391906111ee565b610790565b600191505092915050565b60006106f76106f0610788565b848461095b565b6001905092915050565b6000600160008473ffffffffffffffffffffffffffffffffffffffff1673ffffffffffffffffffffffffffffffffffffffff16815260200190815260200160002060008373ffffffffffffffffffffffffffffffffffffffff1673ffffffffffffffffffffffffffffffffffffffff16815260200190815260200160002054905092915050565b600033905090565b600073ffffffffffffffffffffffffffffffffffffffff168373ffffffffffffffffffffffffffffffffffffffff161415610800576040517f08c379a00000000000000000000000000000000000000000000000000000000081526004016107f790611106565b60405180910390fd5b600073ffffffffffffffffffffffffffffffffffffffff168273ffffffffffffffffffffffffffffffffffffffff161415610870576040517f08c379a000000000000000000000000000000000000000000000000000000000815260040161086790611086565b60405180910390fd5b80600160008573ffffffffffffffffffffffffffffffffffffffff1673ffffffffffffffffffffffffffffffffffffffff16815260200190815260200160002060008473ffffffffffffffffffffffffffffffffffffffff1673ffffffffffffffffffffffffffffffffffffffff168152602001908152602001600020819055508173ffffffffffffffffffffffffffffffffffffffff168373ffffffffffffffffffffffffffffffffffffffff167f8c5be1e5ebec7d5bd14f71427d1e84f3dd0314c0f7b2291e5b200ac8c7c3b9258360405161094e9190611146565b60405180910390a3505050565b600073ffffffffffffffffffffffffffffffffffffffff168373ffffffffffffffffffffffffffffffffffffffff1614156109cb576040517f08c379a00000000000000000000000000000000000000000000000000000000081526004016109c2906110e6565b60405180910390fd5b600073ffffffffffffffffffffffffffffffffffffffff168273ffffffffffffffffffffffffffffffffffffffff161415610a3b576040517f08c379a0000000000000000000000000000000000000000000000000000000008152600401610a3290611066565b60405180910390fd5b610a46838383610bda565b60008060008573ffffffffffffffffffffffffffffffffffffffff1673ffffffffffffffffffffffffffffffffffffffff16815260200190815260200160002054905081811015610acc576040517f08c379a0000000000000000000000000000000000000000000000000000000008152600401610ac3906110a6565b60405180910390fd5b8181610ad891906111ee565b6000808673ffffffffffffffffffffffffffffffffffffffff1673ffffffffffffffffffffffffffffffffffffffff16815260200190815260200160002081905550816000808573ffffffffffffffffffffffffffffffffffffffff1673ffffffffffffffffffffffffffffffffffffffff1681526020019081526020016000206000828254610b689190611198565b925050819055508273ffffffffffffffffffffffffffffffffffffffff168473ffffffffffffffffffffffffffffffffffffffff167fddf252ad1be2c89b69c2b068fc378daa952ba7f163c4a11628f55a4df523b3ef84604051610bcc9190611146565b60405180910390a350505050565b505050565b600081359050610bee8161134b565b92915050565b600081359050610c0381611362565b92915050565b600060208284031215610c1b57600080fd5b6000610c2984828501610bdf565b91505092915050565b60008060408385031215610c4557600080fd5b6000610c5385828601610bdf565b9250506020610c6485828601610bdf565b9150509250929050565b600080600060608486031215610c8357600080fd5b6000610c9186828701610bdf565b9350506020610ca286828701610bdf565b9250506040610cb386828701610bf4565b9150509250925092565b60008060408385031215610cd057600080fd5b6000610cde85828601610bdf565b9250506020610cef85828601610bf4565b9150509250929050565b610d0281611234565b82525050565b6000610d138261117c565b610d1d8185611187565b9350610d2d818560208601611277565b610d368161133a565b840191505092915050565b6000610d4e602383611187565b91507f45524332303a207472616e7366657220746f20746865207a65726f206164647260008301527f65737300000000000000000000000000000000000000000000000000000000006020830152604082019050919050565b6000610db4602283611187565b91507f45524332303a20617070726f766520746f20746865207a65726f20616464726560008301527f73730000000000000000000000000000000000000000000000000000000000006020830152604082019050919050565b6000610e1a602683611187565b91507f45524332303a207472616e7366657220616d6f756e742065786365656473206260008301527f616c616e636500000000000000000000000000000000000000000000000000006020830152604082019050919050565b6000610e80602883611187565b91507f45524332303a207472616e7366657220616d6f756e742065786365656473206160008301527f6c6c6f77616e63650000000000000000000000000000000000000000000000006020830152604082019050919050565b6000610ee6602583611187565b91507f45524332303a207472616e736665722066726f6d20746865207a65726f20616460008301527f64726573730000000000000000000000000000000000000000000000000000006020830152604082019050919050565b6000610f4c602483611187565b91507f45524332303a20617070726f76652066726f6d20746865207a65726f2061646460008301527f72657373000000000000000000000000000000000000000000000000000000006020830152604082019050919050565b6000610fb2602583611187565b91507f45524332303a2064656372656173656420616c6c6f77616e63652062656c6f7760008301527f207a65726f0000000000000000000000000000000000000000000000000000006020830152604082019050919050565b61101481611260565b82525050565b6110238161126a565b82525050565b600060208201905061103e6000830184610cf9565b92915050565b6000602082019050818103600083015261105e8184610d08565b905092915050565b6000602082019050818103600083015261107f81610d41565b9050919050565b6000602082019050818103600083015261109f81610da7565b9050919050565b600060208201905081810360008301526110bf81610e0d565b9050919050565b600060208201905081810360008301526110df81610e73565b9050919050565b600060208201905081810360008301526110ff81610ed9565b9050919050565b6000602082019050818103600083015261111f81610f3f565b9050919050565b6000602082019050818103600083015261113f81610fa5565b9050919050565b600060208201905061115b600083018461100b565b92915050565b6000602082019050611176600083018461101a565b92915050565b600081519050919050565b600082825260208201905092915050565b60006111a382611260565b91506111ae83611260565b9250827fffffffffffffffffffffffffffffffffffffffffffffffffffffffffffffffff038211156111e3576111e26112dc565b5b828201905092915050565b60006111f982611260565b915061120483611260565b925082821015611217576112166112dc565b5b828203905092915050565b600061122d82611240565b9050919050565b60008115159050919050565b600073ffffffffffffffffffffffffffffffffffffffff82169050919050565b6000819050919050565b600060ff82169050919050565b60005b8381101561129557808201518184015260208101905061127a565b838111156112a4576000848401525b50505050565b600060028204905060018216806112c257607f821691505b602082108114156112d6576112d561130b565b5b50919050565b7f4e487b7100000000000000000000000000000000000000000000000000000000600052601160045260246000fd5b7f4e487b7100000000000000000000000000000000000000000000000000000000600052602260045260246000fd5b6000601f19601f8301169050919050565b61135481611222565b811461135f57600080fd5b50565b61136b81611260565b811461137657600080fd5b5056fea2646970667358221220cca297ae40474e86b42ae876fa42f37cc68a330550064b550eaf54a73558a2c164736f6c63430008000033",
    "immutableReferences": {},
    "source": "pragma solidity ^0.8.0;\r\n\r\nimport \"@openzeppelin/contracts/token/ERC20/ERC20.sol\";\r\n//import \"@openzeppelin/contracts/token/ERC20/ERC20Detailed.sol\";\r\n\r\n/**\r\n * @title SimpleToken\r\n * @dev Very simple ERC20 Token example, where all tokens are pre-assigned to the creator.\r\n * Note they can later distribute these tokens as they wish using `transfer` and other\r\n * `ERC20` functions.\r\n */\r\ncontract SimpleToken is ERC20 {\r\n\r\nuint public count;\r\n\r\n    constructor (\r\n\tstring memory _name,\r\n    string memory _symbol,\r\n\tuint _count\r\n\t\r\n\t)      \r\n\r\n\tpublic ERC20(_name,_symbol) {\r\n        _mint(msg.sender, _count * (10 ** uint256(decimals())));\r\n    }\r\n}",
    "sourcePath": "/Users/bhavyam/Desktop/projects/NFT/CreatorToken/contracts/SimpleToken.sol",
    "compiler": {
        "name": "solc",
        "version": "0.8.0+commit.c7dfd78e.Emscripten.clang"
    },
    "schemaVersion": "3.4.1",
    "updatedAt": "2021-05-23T09:45:24.050Z",
    "networkType": "ethereum",
    "devdoc": {
        "details": "Very simple ERC20 Token example, where all tokens are pre-assigned to the creator. Note they can later distribute these tokens as they wish using `transfer` and other `ERC20` functions.",
        "kind": "dev",
        "methods": {
            "allowance(address,address)": {
                "details": "See {IERC20-allowance}."
            },
            "approve(address,uint256)": {
                "details": "See {IERC20-approve}. Requirements: - `spender` cannot be the zero address."
            },
            "balanceOf(address)": {
                "details": "See {IERC20-balanceOf}."
            },
            "decimals()": {
                "details": "Returns the number of decimals used to get its user representation. For example, if `decimals` equals `2`, a balance of `505` tokens should be displayed to a user as `5,05` (`505 / 10 ** 2`). Tokens usually opt for a value of 18, imitating the relationship between Ether and Wei. This is the value {ERC20} uses, unless this function is overridden; NOTE: This information is only used for _display_ purposes: it in no way affects any of the arithmetic of the contract, including {IERC20-balanceOf} and {IERC20-transfer}."
            },
            "decreaseAllowance(address,uint256)": {
                "details": "Atomically decreases the allowance granted to `spender` by the caller. This is an alternative to {approve} that can be used as a mitigation for problems described in {IERC20-approve}. Emits an {Approval} event indicating the updated allowance. Requirements: - `spender` cannot be the zero address. - `spender` must have allowance for the caller of at least `subtractedValue`."
            },
            "increaseAllowance(address,uint256)": {
                "details": "Atomically increases the allowance granted to `spender` by the caller. This is an alternative to {approve} that can be used as a mitigation for problems described in {IERC20-approve}. Emits an {Approval} event indicating the updated allowance. Requirements: - `spender` cannot be the zero address."
            },
            "name()": {
                "details": "Returns the name of the token."
            },
            "symbol()": {
                "details": "Returns the symbol of the token, usually a shorter version of the name."
            },
            "totalSupply()": {
                "details": "See {IERC20-totalSupply}."
            },
            "transfer(address,uint256)": {
                "details": "See {IERC20-transfer}. Requirements: - `recipient` cannot be the zero address. - the caller must have a balance of at least `amount`."
            },
            "transferFrom(address,address,uint256)": {
                "details": "See {IERC20-transferFrom}. Emits an {Approval} event indicating the updated allowance. This is not required by the EIP. See the note at the beginning of {ERC20}. Requirements: - `sender` and `recipient` cannot be the zero address. - `sender` must have a balance of at least `amount`. - the caller must have allowance for ``sender``'s tokens of at least `amount`."
            }
        },
        "title": "SimpleToken",
        "version": 1
    },
    "userdoc": {
        "kind": "user",
        "methods": {},
        "version": 1
    }
}